:100000000C9462000C9492040C946B040C948A007F
:100010000C948A000C948A000C948A000C948A0038
:100020000C948A000C948A000C948A000C948A0028
:100030000C948A000C948A000C948A000C948A0018
:100040000C9421040C948A000C94DF040C94B904E1
:100050000C948A000C948A000C948A000C948A00F8
:100060000C9411050C948A00000000002300260067
:10007000290000000008000201000003040700003E
:1000800000000000000000000000250028002B00F8
:1000900000000000240027002A00040404040404D3
:1000A0000404020202020202030303030303010227
:1000B00004081020408001020408102001020408F6
:1000C00010203F0611241FBECFEFD8E0DEBFCDBF0A
:1000D00011E0A0E0B1E0EAEDF2E102C005900D927E
:1000E000AA33B107D9F722E0AAE3B1E001C01D921B
:1000F000AD3AB207E1F710E0C2E6D0E004C02197C4
:10010000FE010E946009C136D107C9F70E94780636
:100110000C946B090C940000CF93DF9390E0FC01EA
:10012000E255FF4F2491FC01E656FF4F849188234E
:10013000C1F090E0880F991FFC01E057FF4FC59177
:10014000D491FC01EA57FF4FA591B4919FB7F89461
:100150008881E22FE0958E2388838C91E823EC93AD
:100160009FBFDF91CF910895833081F028F48130D3
:1001700099F08230A1F008958730A9F08830B9F065
:100180008430D1F4809180008F7D03C08091800005
:100190008F7780938000089584B58F7702C084B5EF
:1001A0008F7D84BD08958091B0008F7703C08091CA
:1001B000B0008F7D8093B0000895CF93DF93282FF8
:1001C00030E0F901EE58FF4F8491F901E255FF4FFD
:1001D000D491F901E656FF4FC491CC2389F08111E7
:1001E0000E94B400EC2FF0E0EE0FFF1FEA57FF4F24
:1001F000A591B4918FB7F894EC91ED2BEC938FBF50
:10020000DF91CF9108953FB7F894809100029091CB
:100210000102A0910202B091030226B5A89B05C07D
:100220002F3F19F00196A11DB11D3FBFBA2FA92F75
:10023000982F8827820F911DA11DB11DBC01CD01F2
:1002400042E0660F771F881F991F4A95D1F70895DE
:10025000089508950895CF92DF92EF92FF920F9341
:100260001F93CF93DF936C017A018B01C0E0D0E044
:10027000CE15DF0581F0D8016D918D01D601ED918C
:10028000FC910190F081E02DC6010995892B11F0B8
:100290002196EECF7E01C701DF91CF911F910F9183
:1002A000FF90EF90DF90CF900895FC01538D448D27
:1002B000252F30E0842F90E0821B930B541710F011
:1002C000CF96089501970895FC01918D828D98171E
:1002D00061F0828DDF01A80FB11D5D968C91928D2A
:1002E0009F5F9F73928F90E008958FEF9FEF089527
:1002F000FC01918D828D981731F0828DE80FF11DF0
:10030000858D90E008958FEF9FEF0895FC01918D0A
:10031000228D892F90E0805C9F4F821B91098F7303
:100320009927089584E092E00E94860121E0892BBC
:1003300009F420E0822F0895FC01848DDF01A80FCD
:10034000B11DA35ABF4F2C91848D90E001968F73FD
:100350009927848FA689B7892C93A089B1898C911C
:10036000837080648C93938D848D981306C002886B
:10037000F389E02D80818F7D80830895EF92FF9235
:100380000F931F93CF93DF93EC0181E0888F9B8DB8
:100390008C8D981305C0E889F989808185FD26C078
:1003A000F62E0B8D10E00F5F1F4F0F731127E02EFD
:1003B0008C8DE8120CC00FB607FCFACFE889F989DA
:1003C000808185FFF5CFCE010E949C01F1CF8B8DFE
:1003D000FE01E80FF11DE35AFF4FF0829FB7F8943A
:1003E0000B8FEA89FB89808180620AC09FB7F894ED
:1003F000EE89FF896083E889F98980818370806450
:1004000080839FBF81E090E0DF91CF911F910F919A
:10041000FF90EF900895CF93DF93EC01888D8823B0
:10042000C9F0EA89FB89808185FD05C0A889B98961
:100430008C9186FD0FC00FB607FCF5CF808185FF3C
:10044000F2CFA889B9898C9185FFEDCFCE010E94AA
:100450009C01E7CFDF91CF91089580E090E0892B58
:1004600029F00E94920181110C940000089585EDFD
:100470008093BC008091BC0084FDFCCF1092CF0122
:10048000089540918001262F30E0240F311D213244
:100490003105DCF42091CF012430C9F4FC0180E067
:1004A00090E0861758F4309180012191DC01A05A28
:1004B000BE4FA30FB11D2C930196F3CF8091800105
:1004C000680F6093800180E0089581E0089582E0E4
:1004D00008950895E091A8018091A701E81730F4EC
:1004E000F0E0E05CFE4F808190E008958FEF9FEF99
:1004F00008959091A8018091A701981750F4E92FD1
:10050000F0E0E05CFE4F208130E09F5F9093A80117
:1005100002C02FEF3FEFC90108958091A70190E03D
:100520002091A801821B91090895CF92DF92EF924A
:10053000FF920F931F93CF93DF937C01CB018A012E
:100540002091D001222389F0EB016B01C40ED51E4E
:10055000CC15DD0569F06991D701ED91FC91019011
:10056000F081E02DC7010995F3CF642F0E9441026D
:10057000C801DF91CF911F910F91FF90EF90DF9015
:10058000CF900895CF93DF931F92CDB7DEB76983E5
:100590002091D0012223D1F02091F301203240F0AC
:1005A00021E030E0FC013383228380E090E015C03D
:1005B0008091D101E82FF0E0EE52FE4F99819083B7
:1005C0008F5F8093D1018093F30105C061E0CE017C
:1005D00001960E94410281E090E00F90DF91CF915F
:1005E0000895089580E090E008950E9466096115DD
:1005F000710579F0FB0101900020E9F73197AF0117
:10060000461B570BDC01ED91FC910280F381E02D3C
:10061000099480E090E008958F929F92AF92BF92EC
:100620000F931F93CF93DF93CDB7DEB7A1970FB68C
:10063000F894DEBF0FBECDBF19A2423008F44AE0E5
:100640008E010F5D1F4F842E912CA12CB12CA50182
:1006500094010E943E09E62FB901CA010150110917
:10066000EA3014F4E05D01C0E95CD801EC93232B7F
:10067000242B252B61F7B80184E092E00E94F70259
:10068000A1960FB6F894DEBF0FBECDBFDF91CF911C
:100690001F910F91BF90AF909F908F900895CF9230
:1006A000DF92EF92FF92CF9381E08093FA018091E5
:1006B000F8019091F901892B99F42FB7F894809162
:1006C000FC019091FD01A091FE01B091FF012FBFAF
:1006D00080933C0190933D01A0933E01B0933F0174
:1006E0008091F8019091F90101969093F90180931E
:1006F000F8018091F8019091F9010F9709F09BC0E2
:100700002FB7F8948091FC019091FD01A091FE011A
:10071000B091FF012FBFC0903C01D0903D01E0900F
:100720003E01F0903F01BC01CD016C197D098E099D
:100730009F0928EE33E040E050E00E943E092093FC
:100740003C0130933D0140933E0150933F01609145
:100750003C0170913D0180913E0190913F010E94CA
:10076000B0089B01AC0160E070E080E89FE30E946C
:1007700008080E947A0870933B0160933A01209127
:100780003A0130913B014CE3429FC001439F900DE1
:1007900011249093F5018093F40168E271E084E004
:1007A00092E00E94F702C090F401D090F5010D2C68
:1007B000000CEE08FF08F7FE0EC06DE284E092E048
:1007C0000E94BE0166277727CB016C197D098E092F
:1007D0009F094AE003C04AE0C701B6010E940C032A
:1007E0006CE271E084E092E00E94F702E5E7F0E05D
:1007F0008491E1EBF0E0F490EDE9F0E0C491CC23DA
:10080000A1F081110E94B400EC2FF0E0EE0FFF1F69
:10081000E859FF4FA591B491EC91EF2131E020E030
:1008200009F430E0832F922F02C080E090E0909393
:10083000F7018093F601CF91FF90EF90DF90CF907A
:1008400008951F920F920FB60F9211242F933F938A
:100850008F939F93AF93BF938091FC019091FD0183
:10086000A091FE01B091FF013091FB0123E0230F25
:100870002D3720F40196A11DB11D05C026E8230FD8
:100880000296A11DB11D2093FB018093FC01909362
:10089000FD01A093FE01B093FF01809100029091B1
:1008A0000102A0910202B09103020196A11DB11DA7
:1008B0008093000290930102A0930202B09303027E
:1008C000BF91AF919F918F913F912F910F900FBE4C
:1008D0000F901F9018951F920F920FB60F92112430
:1008E0002F933F934F935F936F937F938F939F9338
:1008F000AF93BF93EF93FF93E0910201F091030157
:100900000995FF91EF91BF91AF919F918F917F9149
:100910006F915F914F913F912F910F900FBE0F906C
:100920001F9018951F920F920FB60F9211242F93BC
:100930003F934F935F936F937F938F939F93AF9367
:10094000BF93EF93FF93E0910001F09101010995AE
:10095000FF91EF91BF91AF919F918F917F916F9197
:100960005F914F913F912F910F900FBE0F901F906D
:1009700018951F920F920FB60F9211242F933F9349
:100980004F935F936F937F938F939F93AF93BF9397
:10099000EF93FF9384E092E00E949C01FF91EF911E
:1009A000BF91AF919F918F917F916F915F914F9187
:1009B0003F912F910F900FBE0F901F9018951F928F
:1009C0000F920FB60F9211242F938F939F93EF9353
:1009D000FF93E0911402F09115028081E0911A02D8
:1009E000F0911B0282FD12C0908180911D028F5FE9
:1009F0008F7320911E02821751F0E0911D02F0E0EA
:100A0000EC5FFD4F958F80931D0201C08081FF91A7
:100A1000EF919F918F912F910F900FBE0F901F908C
:100A200018951F920F920FB60F9211242F933F9398
:100A30004F935F936F937F938F939F93AF93BF93E6
:100A4000EF93FF938091B900887F803609F49CC0B2
:100A500068F5883209F45BC090F4803109F454C021
:100A600038F4882309F4F6C0883009F44DC0F6C084
:100A7000883109F44CC0803209F45DC0EFC0803485
:100A800009F468C048F4803309F455C0883309F08C
:100A9000E5C08093CD01D8C0803509F44FC08835BA
:100AA00009F45DC0883409F0D9C0D6C0883909F48A
:100AB000C7C0A8F4883709F467C038F4883609F449
:100AC00063C0803709F460C0C9C0883809F4B8C071
:100AD000803909F45FC0803809F0C0C05BC0803B3A
:100AE00009F486C038F4803A09F466C0883A09F4FB
:100AF0007FC0B4C0803C09F4A7C0883C09F4A4C0FE
:100B0000883B09F48AC0AAC08091AA0110C09091C4
:100B1000CC018091CB01981770F5E091CC0181E078
:100B20008E0F8093CC01F0E0E555FE4F80818093DD
:100B3000BB0085EC86C08093CD018EC0E091CC01D6
:100B400081E08E0F8093CC018091BB00F0E0E555F1
:100B5000FE4F80839091CC018091CB016EC0E091DB
:100B6000CC0181E08E0F8093CC018091BB00F0E03E
:100B7000E555FE4F80838091CE0181116DC081E0EB
:100B80008093A90184EA61C083E08093CF01109231
:100B9000A201CFCF8091A201803208F051C0E09134
:100BA000A20181E08E0F8093A2018091BB00F0E052
:100BB000EE57FE4F8083BDCF85EC8093BC00109232
:100BC000CF018091A201803230F4E091A201F0E0E7
:100BD000EE57FE4F10826091A20170E0E091A301F8
:100BE000F091A40182E891E009951092A20136C02B
:100BF00084E08093CF011092810110928001E091F6
:100C0000A501F091A601099580918001811105C08F
:100C100081E08093800110926001E091810181E088
:100C20008E0F80938101F0E0E05AFE4F8081809327
:100C3000BB009091810180918001981708F479CFD1
:100C400085E88093BC000AC085EC8093BC001092BC
:100C5000CF0104C01092CD010E943702FF91EF91A5
:100C6000BF91AF919F918F917F916F915F914F91C4
:100C70003F912F910F900FBE0F901F901895E4E0B9
:100C8000F2E01382128288EE93E0A0E0B0E0848369
:100C90009583A683B78328E031E03183208325EC58
:100CA00030E03587248724EC30E03787268720EC36
:100CB00030E0318B208B21EC30E0338B228B22EC27
:100CC00030E0358B248B26EC30E0378B268B118E71
:100CD000128E138E148EE1EAF2E013821282848364
:100CE0009583A683B7838AE191E0918380830895F9
:100CF000789484B5826084BD84B5816084BD85B5F7
:100D0000826085BD85B5816085BD80916E00816002
:100D100080936E00109281008091810082608093A8
:100D200081008091810081608093810080918000AA
:100D30008160809380008091B10084608093B100D5
:100D40008091B00081608093B00080917A008460CF
:100D500080937A0080917A00826080937A008091FB
:100D60007A00816080937A0080917A008068809315
:100D70007A001092C1001092A8011092A70110925F
:100D8000D1011092F3011092CF0181E08093CE0146
:100D90001092A90182E10E94DD0083E10E94DD0042
:100DA0008091B9008E7F8093B9008091B9008D7FCA
:100DB0008093B90088E48093B80085E48093BC00F8
:100DC00088E291E09093A6018093A50189E291E0E9
:100DD0009093A4018093A301E0911402F091150275
:100DE00082E08083E0911002F09111021082E09184
:100DF0001202F09113028FEC808310921C02E0919A
:100E00001802F091190286E08083E0911602F091B9
:100E10001702808180618083E0911602F0911702B1
:100E2000808188608083E0911602F09117028081B2
:100E300080688083E0911602F091170280818F7D97
:100E4000808382E00E948C0083E00E948C008FE40B
:100E500093E0909301018093000180916900836089
:100E600080936900E89AC1E0D8E012E00FEF95EEB8
:100E7000B92E25ECA22E8091FA01882309F454C0E2
:100E80008091F8019091F9010F9709F04DC0C0933E
:100E9000D001D093F2011092D1011092F3016FE2D0
:100EA00071E081EA92E00E94F7026091F601709190
:100EB000F70181EA92E00E94C202C090F401D09052
:100EC000F5010D2C000CEE08FF08F7FE56C06DE290
:100ED00084E092E00E94BE0166277727CB016C195F
:100EE0007D098E099F094AE00E940C036CE271E0C3
:100EF00084E092E00E94F7026091F4017091F501A4
:100F000081EA92E00E94C2022091F3012132C8F1ED
:100F10001092D1011092F3011092D0011092FA01B7
:100F20001092F9011092F8010E9403016B017C01FB
:100F300082E3482E512C612C712C0E940301DC01AC
:100F4000CB018C199D09AE09BF09883E9340A105CC
:100F5000B10598F321E0421A51086108710888EE42
:100F6000C80E83E0D81EE11CF11C41145104610439
:100F7000710419F70E942D027ECF4AE0C701B60125
:100F8000B3CF8091CF018111FCCF8091F2011093FA
:100F9000CF01C093CE010093CD011092CC012093DC
:100FA000CB01E2EDF1E0ABEAB1E090E0291721F0EE
:100FB00031913D939F5FFACF1092AA019091AA01BF
:100FC000880F892B8093AA018091A901813069F44F
:100FD0001092A9018091AA018093BB008091BC006E
:100FE00083FDF8CFA092BC0002C0B092BC008091FB
:100FF000CF018230E1F38091CD018F3F09F488CF9A
:101000008091CD01803209F483CF8091CD0180CFD2
:101010000E941C080C9404090E94FD0858F00E94CC
:10102000F60840F029F45F3F29F00C94ED085111C7
:101030000C9438090C94F3080E94150968F399235D
:10104000B1F3552391F3951B550BBB27AA276217C4
:101050007307840738F09F5F5F4F220F331F441FD1
:10106000AA1FA9F335D00E2E3AF0E0E832D0915005
:101070005040E695001CCAF72BD0FE2F29D0660FF2
:10108000771F881FBB1F261737074807AB07B0E835
:1010900009F0BB0B802DBF01FF2793585F4F3AF03B
:1010A0009E3F510578F00C94ED080C9438095F3F91
:1010B000E4F3983ED4F3869577956795B795F795C1
:1010C0009F5FC9F7880F911D9695879597F90895A9
:1010D000E1E0660F771F881FBB1F62177307840745
:1010E000BA0720F0621B730B840BBA0BEE1F88F754
:1010F000E09508950E9481086894B1110C94380914
:1011000008950E941D0988F09F5798F0B92F9927DC
:10111000B751B0F0E1F0660F771F881F991F1AF0E2
:10112000BA95C9F714C0B13091F00E943709B1E007
:1011300008950C943709672F782F8827B85F39F006
:10114000B93FCCF3869577956795B395D9F73EF47B
:1011500090958095709561957F4F8F4F9F4F089523
:10116000E89409C097FB3EF4909580957095619541
:101170007F4F8F4F9F4F9923A9F0F92F96E9BB27F7
:101180009395F695879577956795B795F111F8CF73
:10119000FAF4BB0F11F460FF1BC06F5F7F4F8F4FDE
:1011A0009F4F16C0882311F096E911C0772321F0D4
:1011B0009EE8872F762F05C0662371F096E8862F6C
:1011C00070E060E02AF09A95660F771F881FDAF7C3
:1011D000880F9695879597F9089597F99F6780E806
:1011E00070E060E008959FEF80EC089500240A9479
:1011F0001616170618060906089500240A941216F2
:101200001306140605060895092E0394000C11F424
:10121000882352F0BB0F40F4BF2B11F460FF04C0D1
:101220006F5F7F4F8F4F9F4F089557FD9058440F2A
:10123000551F59F05F3F71F04795880F97FB991F35
:1012400061F09F3F79F087950895121613061406F2
:10125000551FF2CF4695F1DF08C01616170618067F
:10126000991FF1CF86957105610508940895E8945A
:10127000BB2766277727CB0197F90895A1E21A2E9D
:10128000AA1BBB1BFD010DC0AA1FBB1FEE1FFF1F2A
:10129000A217B307E407F50720F0A21BB30BE40B7A
:1012A000F50B661F771F881F991F1A9469F76095C1
:1012B0007095809590959B01AC01BD01CF0108957B
:1012C000EE0FFF1F0590F491E02D099481E090E06E
:0A12D000F8940C946B09F894FFCF1A
:1012DA002A012A0100000000BE012B0155010B0260
:1012EA0086016401780100000000C2029502F20240
:1012FA0069028D0279026A0272706D000D0A006439
:0A130A0069726563616F3A2000000C
:00000001FF
